{
  "contractName": "Sloth_Test_Harness",
  "abi": [
    {
      "inputs": [],
      "name": "valid",
      "outputs": [
        {
          "internalType": "bool",
          "name": "",
          "type": "bool"
        }
      ],
      "stateMutability": "view",
      "type": "function"
    },
    {
      "inputs": [],
      "name": "y",
      "outputs": [
        {
          "internalType": "uint256",
          "name": "",
          "type": "uint256"
        }
      ],
      "stateMutability": "view",
      "type": "function"
    },
    {
      "inputs": [
        {
          "internalType": "uint256",
          "name": "_y",
          "type": "uint256"
        }
      ],
      "name": "set",
      "outputs": [],
      "stateMutability": "nonpayable",
      "type": "function"
    },
    {
      "inputs": [
        {
          "internalType": "uint256",
          "name": "x",
          "type": "uint256"
        },
        {
          "internalType": "uint256",
          "name": "p",
          "type": "uint256"
        },
        {
          "internalType": "uint256",
          "name": "i",
          "type": "uint256"
        }
      ],
      "name": "compute_and_store",
      "outputs": [],
      "stateMutability": "nonpayable",
      "type": "function"
    },
    {
      "inputs": [
        {
          "internalType": "uint256",
          "name": "x",
          "type": "uint256"
        },
        {
          "internalType": "uint256",
          "name": "p",
          "type": "uint256"
        },
        {
          "internalType": "uint256",
          "name": "i",
          "type": "uint256"
        }
      ],
      "name": "verify_and_store",
      "outputs": [],
      "stateMutability": "nonpayable",
      "type": "function"
    }
  ],
  "bytecode": "0x608060405234801561001057600080fd5b5061028c806100206000396000f3fe608060405234801561001057600080fd5b50600436106100675760003560e01c8063a56dfe4a11610050578063a56dfe4a146100b4578063c1991219146100ce578063eb922796146100ea57610067565b8063454560431461006c57806360fe47b114610097575b600080fd5b6100956004803603606081101561008257600080fd5b5080359060208101359060400135610113565b005b610095600480360360208110156100ad57600080fd5b5035610155565b6100bc61015a565b60408051918252519081900360200190f35b6100d6610160565b604080519115158252519081900360200190f35b6100956004803603606081101561010057600080fd5b5080359060208101359060400135610169565b61012160005484848461017c565b600180547fffffffffffffffffffffffffffffffffffffffffffffffffffffffffffffff0016911515919091179055505050565b600055565b60005481565b60015460ff1681565b6101748383836101d8565b600055505050565b6000805b8281101561019d57838061019057fe5b8687099550600101610180565b508284816101a757fe5b069350848414156101ba575060016101d0565b8484840314156101cc575060016101d0565b5060005b949350505050565b60006001830160021c8385816101ea57fe5b06945060005b8381101561020d5761020386838761021a565b95506001016101f0565b50849150505b9392505050565b60015b821561021357826001166001141561023d57818061023757fe5b84820990505b818061024557fe5b8485099350600183901c925061021d56fea264697066735822122034b32360934353ff37f5b8885547b853955e77f511883dc45b2096619f1bfe9c64736f6c63430007030033",
  "immutableReferences": {},
  "source": "// SPDX-License-Identifier: MIT\n\npragma solidity ^0.7.3;\nimport \"./sloth-verifiable-delay.sol\";\n\ncontract Sloth_Test_Harness {\n  uint256 public y;\n  bool public valid;\n\n  function set(uint256 _y) external {\n    y = _y;\n  }\n\n  function compute_and_store(\n    uint256 x,\n    uint256 p,\n    uint256 i\n  ) external {\n    y = Sloth_Verifiable_Delay.compute(x, p, i);\n  }\n\n  function verify_and_store(\n    uint256 x,\n    uint256 p,\n    uint256 i\n  ) external {\n    valid = Sloth_Verifiable_Delay.verify(y, x, p, i);\n  }\n}\n",
  "sourcePath": "/Users/michaeldeluca/Projects/eth-vdf/contracts/sloth-test-harness.sol",
  "compiler": {
    "name": "solc",
    "version": "0.7.3+commit.9bfce1f6.Emscripten.clang"
  },
  "schemaVersion": "3.3.0",
  "updatedAt": "2020-10-16T23:17:17.379Z",
  "devdoc": {
    "kind": "dev",
    "methods": {},
    "version": 1
  },
  "userdoc": {
    "kind": "user",
    "methods": {},
    "version": 1
  }
}